:020000040800F2
:10000000004000206D61000879290008812900085E
:1000100000000000000000000000000000000000E0
:100020000000000000000000000000008D29000812
:1000300000000000000000008F290008912900083E
:10004000BD610008BD610008BD610008BD61000818
:10005000BD610008BD610008BD6100089929000864
:10006000BD610008ED290008AD290008BD61000848
:10007000FD290008BD610008BD610008BD610008E0
:10008000BD610008BD610008BD610008BD29000810
:10009000CD290008BD610008BD610008BD610008F0
:1000A000BD610008BD610008BD610008BD610008B8
:1000B000BD610008BD610008DD290008BD610008C0
:1000C00010B5064C2378002B07D1054B002B02D02E
:1000D000044800E000BF0123237010BD1800002079
:1000E0000000000018620008044B10B5002B03D07C
:1000F0000349044800E000BF10BDC04600000000F6
:100100001C00002018620008002243088B4274D3B0
:1001100003098B425FD3030A8B4244D3030B8B4208
:1001200028D3030C8B420DD3FF22090212BA030C11
:100130008B4202D31212090265D0030B8B4219D3F2
:1001400000E0090AC30B8B4201D3CB03C01A524112
:10015000830B8B4201D38B03C01A5241430B8B425A
:1001600001D34B03C01A5241030B8B4201D30B0343
:10017000C01A5241C30A8B4201D3CB02C01A52416A
:10018000830A8B4201D38B02C01A5241430A8B422D
:1001900001D34B02C01A5241030A8B4201D30B0216
:1001A000C01A5241CDD2C3098B4201D3CB01C01A30
:1001B000524183098B4201D38B01C01A524143093A
:1001C0008B4201D34B01C01A524103098B4201D328
:1001D0000B01C01A5241C3088B4201D3CB00C01A95
:1001E000524183088B4201D38B00C01A524143080D
:1001F0008B4201D34B00C01A5241411A00D2014632
:10020000524110467047FFE701B5002000F006F8A4
:1002100002BDC0460029F7D076E770477047C04658
:10022000844608006146FFE71FB500F0DFFB0028A9
:1002300001D40021C8421FBD10B500F067FB404249
:10024000013010BD10B500F0D1FB002801DB00200B
:1002500010BD012010BDC04610B500F0C7FB00283E
:1002600001DD002010BD012010BDC04610B500F01A
:1002700075FB002801DC002010BD012010BDC04628
:1002800010B500F06BFB002801DA002010BD012042
:1002900010BDC0469E2110B5C905041CFFF7F0FF34
:1002A000002803D1201C00F07DFF10BD9E21201CE2
:1002B000C90500F035FD00F075FF80231B069C4644
:1002C0006044F2E74A02F8B5530ACE4699464B001D
:1002D000C90F4746884646004502360E1B0E80B5BC
:1002E000C40F6F0A9209AD09F11A44454BD0002999
:1002F00038DD002B00D174E0FF2E00D1BEE080235A
:10030000DB041A431B2900DCFDE0013D6B0100D436
:10031000AFE001256D42AD01AF09380000F0A8FF44
:100320003B0005388340864200DCD3E0B94D311AEA
:100330001D405A0700D19EE00F221340042B00D12C
:1003400099E004356B0100D495E0481CFE2951D199
:10035000FF200023C0051843E4072043C0BCB94672
:10036000B046F8BD002949D0991B002E72D1002D4E
:1003700000D133E14C1E012900D159E1FF2900D100
:100380004CE121006CE0002900DC81E0002B55D11C
:10039000002A70D04B1E012900D12BE1FF296DD01E
:1003A0001B2B50DC190020235B1A10009A40C84018
:1003B000531E9A410243AD188023DB041D4200D135
:1003C000ADE0711CFE2EC3D001206A082840924D7A
:1003D000154005436A0700D08BE01D42B5D1EF08F8
:1003E00034E0002A47D04B1E012966D0FF2945D0B2
:1003F000190087E7C0B2AB015B0AABE7FE239C465E
:10040000701C03006046184200D092E0002E00D01D
:10041000E7E0002D00D119E1002A17D08023AF1AA0
:10042000DB041F4200D142E14446551B00D187E066
:1004300001201D42DFD10021EF0807E0FF2E1DD073
:100440001B2900DC94E031000535EF087B025B0AD4
:10045000C8B27FE7FF2B00D1E0E08020C004054355
:100460001B2900DC88E0551E44461E00690100D5AA
:100470004FE731000435EF08FF29E7D1002F00D105
:1004800066E78023DB033B435B02FF205B0A61E7F7
:10049000002958D0991B002E00D089E0002D00D1F2
:1004A0009DE04E1E012900D1A4E0FF2900D1B6E055
:1004B0001B2E00DDB8E0310081E0AA1A530100D400
:1004C000AFE09701BF09380000F0D2FE3B000538CD
:1004D000834001261D00811B20200131CD40411A9F
:1004E0008B40591E8B411D432AD000216B0700D140
:1004F000F0E00F232B40042B00D022E76B0100D546
:1005000023E7EF08A2E720235B1A10009A40C840B7
:10051000531E9A410243AD1A6B0100D5FBE66B07EF
:1005200000D1D5E00F2331002B40042B00D008E789
:10053000A1E7AF1A7B014ED4002F00D0EDE60024D6
:100540000020002306E7FE23711C0B4221D1002E60
:1005500000D081E0002D00D19FE0002A00D1B2E060
:10056000AB185A0100D4B0E09B0101205B0AF1E610
:100570008023DB041A4316E720242800C840611AB0
:100580008D4029004C1EA141014344461E00551ACE
:10059000C2E7FF2900D1DBE6AF187F087B0705D053
:1005A0000F233D1D3B40042B00D064E7FF084DE7BF
:1005B000FF2B34D01B2937DC8020C00405432800E2
:1005C0002026C840711A8D4029004D1EA9410143C3
:1005D0001E008D18F0E64446571B9EE64446150063
:1005E00049E7002D46D1002A66D180230024FF2050
:1005F000DB03AFE6AA18530113D5074F5208174083
:10060000530744D00F231340042B40D002213D1D3B
:1006100031E7C046FFFFFFFBFFFFFF7D44464F462B
:100620002CE70121D70811E705321900D7080DE79B
:10063000571B7B0137D5BF01BF09380000F018FEFA
:100640003B00053883404446013643E7002A00D189
:1006500075E744464F46F9E6002DE0D08023DB03E2
:10066000002A17D09F4200D20BE7994500D308E734
:100670004F4606E78023DB03002A0BD09F4200D2BF
:10068000FFE6994500D3FCE644464F46F9E60221D1
:10069000FF08DBE6FF203B435CE6002A00D14FE782
:1006A0000021D708D2E644460121FF08CEE6002FFC
:1006B00000D07BE7002443E780234A46DB0344461F
:1006C000FF20134346E60021C0E60021DF08BDE617
:1006D0003100D0E601206A0100D58BE62A00DFE771
:1006E000F0B546464F46D6464502C0B5C30F470053
:1006F00098460E1C6D0A3F0E5BD0FF2F21D0802341
:10070000ED00DB041D43002399469A467F3F7402A7
:100710007300640A1B0EF60F002B20D0FF2B43D072
:1007200080220020E400D20414437F3B4246FF1A9B
:100730004B4672400F2B00D99DE071499B00CB586E
:100740009F46002D5AD108239946063B74029A46CB
:100750007300FF27640A1B0EF60F002BDED1002C5E
:100760003BD1012342464946724019430E2918D80D
:100770006448890041588F465346022B00D1B8E0A7
:10078000032B6ED042462C00012B40D100200024C8
:10079000C0052043D2071043E0BCBA46B146A84684
:1007A000F0BDFF200024F3E7002C20D10223FF3FFF
:1007B000D8E7002D05D104239946033B00279A462C
:1007C000A5E7280000F054FD7627431F9D40002335
:1007D0007F4299469A463F1A99E7200000F048FD6B
:1007E000431F9C4076235B421B1A00209EE7032395
:1007F0004A461A4391460320FC3397E70C23994657
:10080000093BFF279A4682E703282CD032003800A4
:100810007F30002847DD630704D00F232340042BDB
:1008200000D00434230103D53800374B80301C40FE
:10083000FE28B6DCA401640AC0B2A9E78024002225
:10084000FF20E403A4E78023DB031D4201D01C4208
:100850000BD08024E4032C4364024246FF20640A48
:1008600096E746462C008023DB031C4364023200DB
:10087000FF20640A8CE76D01600185422DD21B23A5
:100880000024013F0126290064006D00002901DBDE
:10089000854201D32D1A3443013B002BF3D16B1E4B
:1008A0009D412C43B3E701231B1A1B2B00DD6DE791
:1008B00021009E37D940BC400B00611E8C41234370
:1008C000590704D00F211940042900D004335901DD
:1008D00013D49B0100205C0A5AE71A2301242D1A25
:1008E000D0E7981E43425841404232000024C0B233
:1008F0004EE74246FF2000244AE70120002447E754
:100900003062000870620008FFFFFFF770B5420018
:100910004E024C0045026D0A120EC30F760A240ED9
:10092000C90FFF2A10D0FF2C0CD00120A2420AD1FF
:10093000B54208D18B420FD0002A04D12800431EB3
:10094000984100E0012070BD0120FF2CFBD1354310
:10095000F9D14B401800F6E70020F4E730B542002B
:1009600044024D02C30F4800640A120E6D0A000EC5
:10097000C90FFF2A18D0FF280AD0002A1ED100284C
:100980000AD1002D29D0002C2DD14800013830BDCE
:10099000002D25D1002A01D1002CF6D08B4219D090
:1009A00001205B421843F2E7002C19D1FF28F7D150
:1009B000002D15D100208B42F2D1E8E70028EFD0BE
:1009C0008B42EDD18242EBDC04DBAC42E8D8002064
:1009D000AC42DCD258000138D9E7002CD7D0DFE791
:1009E00002204042D3E78B42DAD1EEE730B5420035
:1009F00044024D02C30F4800640A120E6D0A000E35
:100A0000C90FFF2A17D0FF280AD0002A1BD10028BF
:100A10000AD1002D1DD0002C2DD14800013811E045
:100A2000002D0ED1002A01D1002CF6D08B420CD122
:100A30005800013806E0002C03D1FF2805D1002D15
:100A400015D0022030BD002806D101205B4218439A
:100A5000F8E7002CF6D0F8E78B42F6D18242F4DCBE
:100A6000E6DBAC42F1D80020AC42EBD2E0E700205C
:100A70008B42EAD1E6E78B42E7D1F2E7F0B54F4689
:100A80004646D6464502C0B546000F1C6D0A360ED6
:100A9000C40F002E00D1CDE0FF2E72D08023ED00D8
:100AA000DB041D43002399469A467F3E7B025B0A86
:100AB00098467B001B0EFF0F002B72D0FF2B00D13E
:100AC000A9E07F3BF6184B460A2B00DD85E0434644
:100AD0008022DB00D2041A434B4690467C40002221
:100AE000022B0FDD494601238B40A621C9000B4292
:100AF00000D072E0902189000B4200D0DAE088211A
:100B0000194267D1280C42462D042D0C434629007A
:100B100012041B0C120C51435D4342435843AD1861
:100B20000B0C5B199A4203D980225202944660440E
:100B300009041A04090C52189501691E8D411B0CF9
:100B4000920E1B1815439B011D431B0100D5CFE0DE
:100B500030007F30002800DCB1E06B070BD00F23A2
:100B600032002B40042B06D004352B0103D58032F4
:100B700010006A4B1D40FE2864DCAB015B0AC0B26A
:100B80001FE0002D00D08FE008239946063B9A46CF
:100B90007B025B0A98467B00FF261B0EFF0F002B93
:100BA0008CD14346002B5CD14A4601331A4391460F
:100BB00013000A2A11DC01227C40022B92DC002067
:100BC0000023C0051843E4072043E0BCBA46B14601
:100BD000A846F0BD3C00454692465346022B31D014
:100BE000032B11D0012BEAD030008030721C00287A
:100BF00066DD6B07B9D00F232B40042BB4D1B4E7CB
:100C00000F2A7AD03C0045468023DB032B435B024E
:100C1000FF205B0AD5E74346FF36002B34D14A4616
:100C2000023313430A2BD8DC7C40002A0AD09946B1
:100C3000022257E7002D08D104239946033B0026E2
:100C40009A4633E7FF200023BBE7280000F010FBA3
:100C50007626431F9D400023764299469A46361ACF
:100C600024E7404600F004FB4B46361A763E0A2B3A
:100C7000B3DC43460538834098464B4600227C400F
:100C8000022B00DD2EE73DE703234A461A431300FB
:100C90000A2AB5DC01229A40882113007C400322F5
:100CA000194200D12EE795E70C239946093BFF2610
:100CB0009A46FBE680230024FF20DB0381E7320015
:100CC00001231B1A1B2B00DD79E79E32290095407A
:100CD000D9406A1E95410D436B0704D00F232B406A
:100CE000042B00D004356B0113D50120002368E7E5
:100CF00001236A081D40154376E78023DB031D426C
:100D000082D042461A4200D07EE73C00FF201343C7
:100D100057E7AB0100205B0A53E7C046FFFFFFF730
:100D2000F8B54746CE464B02460080B5C40F470291
:100D3000580A844648007A0A360EBF09000ECD0FC5
:100D40009B09FF286DD001214D40311AAC423AD0A9
:100D5000002900DC9CE1002800D19EE0FF2E00D19C
:100D600088E08022D20413431B2900DCF6E0013F17
:100D70007A0100D479E001277F42BF01BB09984680
:100D8000404600F075FA434605388340864200DC51
:100D9000CCE0B44F311A1F405A0768D00F221340DD
:100DA000042B64D004377B0161D5481CFE2900D098
:100DB00081E0FF200023C0051843E4072043C0BCA6
:100DC000B946B046F8BD002900DC79E1002876D1AB
:100DD000002B4CD0481E012900D147E1FF2949D002
:100DE0001B2871DC01001A002020CA40411A8B40E8
:100DF000591E8B411343FF188023DB041F4200D18F
:100E0000B8E0711CFE2ED4D0012297483A407F08EA
:100E1000074017437A0700D096E01F42C5D1FA0871
:100E200055E03100FF398946002B2CD101214D407E
:100E3000AC4200D1B4E0494600294CD0002E00D08D
:100E4000F9E0FF21002F00D108E14A1E012900D15D
:100E500056E1FF2900D142E11B2A00DC24E15F1E9C
:100E60002C0006007A0100D585E731000437FA0826
:100E7000FF292CD1002A9CD08023DB0313435B0283
:100E8000FF205B0A97E7AC4200D1A7E0002922D0FF
:100E9000002ED6D062462C00EEE7002BE7D0481E8D
:100EA000012936D0FF29E5D001005DE701203B0094
:100EB0007A0100D457E1C0B2BB015B0A7BE7FF2E89
:100EC000D8D01B2900DC9FE031000537FA08530217
:100ED0005B0AC8B26FE7FE20711C084254D1002E95
:100EE00000D0B1E0002F00D102E1002B00D1F9E0E9
:100EF0008021FA1AC9040A4200D13BE10124DF1B18
:100F00002C40002F49D001200F42D5D10021FA08F2
:100F1000DDE7FF1A7B0100D4DEE0BD01AD0928004A
:100F200000F0A6F92B000538834001262022811B02
:100F30000131521A1F009340CF405A1E93411F4364
:100F40002BD000217B07B1D00F233B40042B00D0D6
:100F500028E77B0100D528E7FA08B8E71A00202027
:100F6000CA40411A8B40591E8B411343FF1A7B0123
:100F700000D502E77B0700D10DE10F2331003B4094
:100F8000042B00D00EE772E7FA1A9046520156D4AD
:100F90004346002B00D0F3E60024002000230AE79C
:100FA000494600291CD0002E00D002E7FF21002F67
:100FB00055D04A1E012959D0FF2900D190E01B2AA3
:100FC00000DD91E011003A002025CA40691A8F40E7
:100FD000791E8F4117430600FF180DE7002926D11F
:100FE000FE20711C084213D1002E00D096E0002F85
:100FF00000D1B4E0002B75D0FB185A0100D4B2E048
:101000009B015B0AFD38D6E68022D2041343EAE650
:10101000FF2900D1CDE6FA185208530705D00F2357
:10102000171D1340042B00D021E7D2084FE7002EF4
:10103000BCD0624620E72C00FF200023BBE6012441
:10104000DB1B98462C409BE6002F75D1002B00D06F
:1010500096E080230024FF20DB03ACE62C001F0079
:1010600005E7C046FFFFFFFBFFFFFF7DFB185A01AE
:1010700000D48DE04A4A5B081A40590700D18CE041
:101080000F210B400D39042BCFD00221171DEEE6A6
:10109000002900D11FE7821B1100002E00D1D1E6EC
:1010A0008021C9040F43D7E639002024D140A21A79
:1010B00097407A1E97410F432C000600DF1B56E72E
:1010C00000298DD0811B002E00D170E71B290BDC7D
:1010D0008022D204174376E70121FA08F7E62C00B4
:1010E0006246C7E60021F2E605330100DA08EEE6C3
:1010F000002B00D150E70124002162462C40E6E697
:10110000DA1B530132D592019409200000F0B0F8A7
:101110002300053883402C00012607E7002FDFD08D
:10112000002B17D08023DB039A4200D2A4E69C4513
:1011300000D3A1E662469FE6002B0BD08023DB03A1
:101140009A4200D298E69C4500D395E60124624677
:101150002C4091E68023DB03FF2013432BE6002085
:10116000002B00D127E60021DA08B0E62C0001218F
:10117000D208ACE6002A00D10EE70021D208A6E68C
:10118000802362460124DB03FF2013432C4012E638
:101190000121DA089BE6310069E60221D20896E6D1
:1011A000FFFFFF7D41024200C30F490A0020120EDB
:1011B0007E2A03DD9D2A02DD094A981870478020A7
:1011C00000040143952A07DC9620821AD140484248
:1011D000002BF3D10800F1E7963A9140F7E7C046BB
:1011E000FFFFFF7F10B5041E0DD000F041F89E23D5
:1011F0001B1A962B0CDC082834D008388440640273
:10120000640AD8B201E000200024C005204310BDCC
:10121000992B13DC421F9440144A224061071CD0D2
:101220000F212140042918D00432D408520115D5C9
:101230009F236402181A640AC0B2E6E70200210084
:101240001B3291400A00511E8A410521091ACC40E7
:101250001443064A22406107E2D1D4086402640ABA
:10126000D8B2D2E76402640A8E30CEE7FFFFFFFBFC
:101270001C2101231B04984201D3000C10391B0AC6
:10128000984201D3000A08391B09984201D300098A
:10129000043902A2105C40187047C04604030202E1
:1012A00001010101000000000000000010B5040071
:1012B00000200022FF2809D843001B5BD2184B1CDA
:1012C0005B08934203D9013080B2F3E7002010BDE0
:1012D00070B51F4B1E681F483100FFF7E7FF040180
:1012E000A4B225000835ADB21B483100FFF7DEFF80
:1012F000000180B20200083293B22E0417490E603A
:10130000120417490A60174A1380174A15802D33B3
:1013100080225201934216D2353080B2134B18808E
:101320002D3580235B019D420FD23534A4B2104B82
:101330001C80104A012313700F4A13700F4A137058
:101340000F4A137070BD0F48E8E70E4CEFE7C04638
:101350003C0400203C0200203C000020380000201B
:1013600034000020F4040020F6040020F0040020E3
:10137000F20400204604002045040020440400201C
:101380006C040020FF0F0000F0B5DE4657464E46C5
:101390004546E0B583B00190614B1B78002B01D02E
:1013A000002176E0002205E05E490B6801330B6006
:1013B000013292B2072A24D853009BB20198C11877
:1013C000594C4900095B01339BB2844663445B007E
:1013D0001B5B9BB20909554C4D002C5B544DAC4234
:1013E00003D0524D490001344C531B0951495C0054
:1013F000615A4F4CA142D7D04E4C5B00013119537A
:10140000D2E703F01BFD4C4B1B68C01AFA239B006C
:10141000984206D203B0F0BCBB46B246A946A046ED
:10142000F0BDFFF755FFF5E74448844650E0434FD1
:1014300057E0434F01203870DC4510D8414F3F78CA
:10144000002F0FD03F4F002038703F48076801370A
:1014500007603E4F3B603E4B01271F7002E0394B57
:1014600001271F702D04AD1BEB175B055B0D5B198E
:10147000DB12384DF6182E605B461C04A41AE317E5
:101480005B055B0D1B19DB12334CD2182260013156
:1014900089B20729BED84B00019A94466344224A78
:1014A0005C00A55AADB25C1C6400A45AA2B293467B
:1014B000294A1268160CB046264E3668370CB946D3
:1014C00047462D37802040018742ADD2B8B28446CE
:1014D000370C2D37802040018742A8D24F462D3748
:1014E000BFB21E484C4604801D48444604801D4837
:1014F00007801D4864460480AF429AD8104F3F7859
:10150000002F99D00E4F0020387018480768013717
:101510000760174F3B60174F012038708CE7C046BB
:10152000460400203C040020800400203C000020F1
:10153000FFFF00003C02002040040020FF0F0000DD
:1015400044040020450400206804002060040020BA
:10155000590400203400002038000020F40400204A
:10156000F6040020F0040020F204002064040020AF
:101570005C0400205804002010B5031C8022520196
:10158000904200D3184B194A13800B1C8022520141
:10159000914200D3144B164A1380144B1B889BB204
:1015A00014480022002103F0DDFE002808D0124A72
:1015B000136801331360114B00221A70012010BD13
:1015C0000B4B1B889BB20B480022102103F0CAFE74
:1015D0000028ECD1054B1A88094B1A80044B1A8855
:1015E000084B1A80EBE7C046FF0F00000200002006
:1015F0000000002058090020700400206D04002025
:101600004A0400204804002030B589B00C22002193
:1016100005A804F0D4FD03AC08220021200004F04A
:10162000CEFD0822002101A804F0C9FD6148002276
:10163000210003F0ADFE002803D00124200009B0F2
:1016400030BD5C481022210003F0A2FE0028F4D136
:10165000594B188880B2594B198889B2FFF78CFF13
:10166000002801D00124E9E75248002103F0ACFE34
:10167000002801D00124E1E74E48102103F0A4FE28
:101680000028F7D14E4AD16902231943D161D269AA
:1016900013400093009B4B484B4B03600023436077
:1016A00083604A4AC2600361836104F0DBF800286A
:1016B00001D00124C2E701A92023019300234B603C
:1016C000404804F071FA002801D00124B6E74048F0
:1016D000404B036080231B06436000238360C3608C
:1016E0000122026108214161037643768376C37645
:1016F000C033C3618023DB0003622423C2548262AF
:1017000000F0B2F9002801D0012497E705A90723CA
:101710008B6080235B014B60012305932C4800F014
:101720006DFB002801D0012488E703230593284896
:1017300005A900F063FB002801D001247EE72448BE
:1017400000F0F8FB002801D0012477E72249204867
:10175000202200F04BFA002801D001246EE719483E
:1017600003F054FF041E01D0012467E71B4B012244
:101770001A701B4B00251D701A4B1D701A4B1D70E3
:101780001A4B1D7003F05AFB194B1860194B1D6062
:101790002B0007E0184A590000208852174A885247
:1017A00001339BB2FF2BF5D9154B00221A70154B54
:1017B0001A7043E7580900200200002000000020B2
:1017C000001002408C080020000400405F09000067
:1017D0001809002000240140800400206D0400202E
:1017E0006C0400204604002045040020440400202E
:1017F000400400203C0400203C0200203C0000206B
:10180000590400205804002070B52E4B18682E4B48
:101810001A8894B22D4B19684B689BB2002A40D1AC
:10182000013B9BB20F259D425241D2B2284B1B78FF
:10183000002B21D0274B1B6883421DD0002A1BD0D0
:1018400022000E32244B5200D65AB6B222000F327A
:101850005200D55AADB24A6892B2002C26D1013A54
:1018600092B200230F2191425B41DBB2002B03D0E7
:10187000144B1B6883421ED0184B1B88184A1288D1
:101880009A4205D1174B1B88174A12889A4207D0F3
:10189000134B188880B2144B198889B2FFF76CFE7D
:1018A00070BD10229A4292415242BFE710239342E8
:1018B0009B415B42DAE70D4B1E800D4B1D80054BB3
:1018C0001860D9E75404002050040020D4080020F8
:1018D0006D0400204C040020800400204A040020F5
:1018E0000200002048040020000000207E040020A8
:1018F0007C040020044B1B78D8B2002B02D0024B92
:1019000000221A707047C04659040020044B1B780F
:10191000D8B2002B02D0024B00221A707047C0468A
:101920005804002010B5094B834200D010BD084A6E
:10193000136801331360074B00221A80064A1368AC
:10194000013313600020FFF71FFDEFE718090020A7
:1019500078040020500400205404002010B5094BE6
:10196000834200D010BD084A136801331360074B4F
:1019700010221A80064A1368013313601020FFF703
:1019800003FDEFE718090020740400205004002034
:1019900054040020054B834200D07047044A13686A
:1019A00001331360034B00221A70F6E71809002078
:1019B000700400206D04002030B583B004000023C3
:1019C00001930368996803220A40012A14D0996898
:1019D000224A114218D19A6801210A439A60204B89
:1019E00018682049FEF790FB0190019B002B15D051
:1019F000019B013B0193F8E71A68D2072BD4DA6800
:101A00001204E4D5002024E0A36B10221343A36347
:101A1000E36B0F3A1343E36301201AE003F00EFA7D
:101A2000050023681B68DB0712D403F007FA401B8C
:101A30000228F6D923681B68DB07F2D4A36B1022B7
:101A40001343A363E36B0F3A1343E363012000E006
:101A5000002003B030BD0020FBE7C0461700008027
:101A60001400002040420F0070B5041E00D1B4E005
:101A7000836B002B00D180E0A36BDB0600D5A6E0D2
:101A800023689A68042108001040114200D09EE0AB
:101A9000A26B53490A400631FF310A43A263996899
:101AA00003220A40012A6ED0DA6818218A43A1680D
:101AB0000A43DA60226813699B009B0861680B4344
:101AC00013612268D36847490B40D360237E9B0390
:101AD000627ED2031343A17E4A031343A26A012A02
:101AE00058D0802252011343E26813432269022A2C
:101AF00052D003432422A25C52001343E27E012A07
:101B00004CD0E269C221FF318A4202D0216A0A43E5
:101B100013432168CA681A43CA60E26A80214905F2
:101B20008A420DD0012A0BD0022A09D0032A07D0FD
:101B3000042A05D0052A03D0062A01D0072A0AD193
:101B40002068416907229143416120684169E56A43
:101B50002A400A4342612268D26823490A409A42D5
:101B60002BD0A36B12229343023A1343A363E36B7C
:101B70000F3A1343E36301202EE0C36334228354FE
:101B800000F0D0FF78E71A68D2079AD4DA68120416
:101B900097D489E70200A6E70420AAE7002903D129
:101BA000802252021343ACE7A26B20210A43A263B6
:101BB000E26B1F390A43E263A3E70023E363A36BED
:101BC00003229343023A1343A363002004E0A36B70
:101BD00010221343A363012070BD0120FCE7C0461F
:101BE000FDFEFFFF1902FEFFE7FF3F83F8B504008B
:101BF0000D00160003689B685B073ED43423C35C6A
:101C0000012B3CD034230122C254437E012B04D04B
:101C1000FFF7D2FE071E2ED100E00027A26B194B62
:101C20001A4080235B001343A3630023E363342241
:101C3000A354236B144A9A62236B144ADA62236B0F
:101C4000134A1A6323681C221A6022685368102101
:101C50000B4353602268D3680F390B43D36021686C
:101C60004031206B33002A0003F068FA2268936841
:101C700004210B4393603800F8BD0227FBE70227DD
:101C8000F9E7C046FEF0FFFF951C0008051D00089F
:101C9000111D000810B5436A9A6B502111422BD1D7
:101CA000996B802292000A439A631A68D068C02117
:101CB0000901084213D1997E002910D11168090742
:101CC0000DD5916849070ED451680C2081435160AD
:101CD0009A6B0B490A400431FF310A439A6318009A
:101CE000FFF73CFE10BD9A6B20210A439A63DA6B22
:101CF0001F390A43DA63F2E71B6B1B6B9847F1E766
:101D0000FEFEFFFF10B5406AFFF70CFE10BD7047E6
:101D100010B5406A836B402213438363C36B3C3A24
:101D20001343C363FFF736FE10BD000070B5040017
:101D300003681D685E686A0701D5720703D42A0725
:101D400027D5320725D5A26BD20604D4A16B8022F9
:101D500092000A43A263D968C0221201114212D133
:101D6000A27E002A0FD12A070DD59A6852072DD4DA
:101D70005A680C218A435A60A36B1F4A13400432ED
:101D8000FF321343A3632000FFF7E8FD23680C2212
:101D90001A602B0601D5330621D4ED0615D5F606BB
:101DA00013D5A36A012B03D02368DB68DB0709D5B1
:101DB000E36B02221343E36323680E321A602000B0
:101DC000FFF7E8FD236810221A6070BDA36B202284
:101DD0001343A363E36B1F3A1343E363D3E7A26B9D
:101DE00080235B021343A3632000FFF790FF236867
:101DF00080221A60D1E7C046FEFEFFFF30B583B0F7
:101E00000400002301933433C35C012B00D181E033
:101E100034230122C254026893685B076CD448687B
:101E20003D4B98424DD0936A0D680120A840034372
:101E30009362E36A072B27D8002B10D188682268A9
:101E4000556907232B40984209D0506907239843CE
:101E50005061206842698D682B40134343610B68D1
:101E60001A00103A022A51D82C4A1268102B13D0AB
:101E7000112B0ED080235B041343284A13600B6898
:101E8000102B0CD000203CE0802252059342E6D07B
:101E9000D4E78023DB03EFE780231B04ECE7204B30
:101EA00018682049FEF730F983001B185B00019386
:101EB00002E0019B013B0193019B002BF9D1002023
:101EC0001FE0936A0D680120A840834393620B686A
:101ED0001A00103A022A1BD8104A1268102B09D097
:101EE000112B05D0104B13400C4A1360002008E062
:101EF0000E4BF8E70E4BF6E7836B20221343836308
:101F0000012034230022E25403B030BD0020F8E762
:101F10000020F6E70220F7E7011000000827014043
:101F20001400002040420F00FFFFFFFEFFFFBFFF35
:101F3000FFFF7FFF70B504003423C35C012B50D03A
:101F400034230122C2540368996802320A40012AEC
:101F500005D11A68D2073ED4DA6812043BD4A26BCA
:101F600021490A400631FF310A43A263DE6801318C
:101F70000E40DA688A43DA602268916880231B0683
:101F80000B43936002F05AFF050023689A68002A09
:101F900013DA02F053FF401B0228F6D923689B682E
:101FA000002BF2DAA36B12229343023A1343A3638A
:101FB00034230022E25401200CE0DA683243DA6074
:101FC000A36B03229343023A1343A36300203423F9
:101FD0000022E25470BDA36B20221343A3630120AF
:101FE000F5E70220F6E7C046FDFEFFFF00B585B02D
:101FF000104B5A698021C9030A435A615A690A4041
:102000000192019A5A69802189020A435A615A69E8
:102010000A400292029A5A698021C9020A435A610F
:102020005B690B400393039B072003F073F905B032
:1020300000BDC0460010024000B583B00D4A516992
:10204000012319435161526913400193019B0022FE
:102050000021092003F04EF9092003F04FF9002276
:1020600000210A2003F046F90A2003F047F903B0E3
:1020700000BDC046001002400368074A934203D0E7
:10208000064A934204D07047054A01211170F7E7D0
:10209000044B01221A70F6E7002000400040014086
:1020A000050500200405002072B6FEE710B50E48B5
:1020B0000E4B03600623436000238360C360C0228D
:1020C00012030261802252034261037601224276AA
:1020D0008376C2760377437701F00CFE002800D1A7
:1020E00010BDFFF7E1FFC0466C090020006400400E
:1020F00000B583B008220021684604F060F80B4860
:102100000B4B036003F01AF900280BD1694600233A
:10211000009301930548102203F03AF9002803D1F7
:1021200003B000BDFFF7C0FFFFF7BEFF5809002056
:102130000074004010B50B480B4B0360E1235B02B9
:10214000436000238360C36003610C2242618361AA
:10215000C3610362436203F0D1FF002800D110BDC8
:10216000FFF7A2FF2C0700200038014010B50E48F1
:102170000E4B03600E4B436000238360C36003611A
:102180000C224261836180221202C2610362013328
:10219000436280239B02836203F0B0FF002800D1DA
:1021A00010BDFFF781FFC046A40600200048004094
:1021B00000093D0000B589B0224BDA698021490051
:1021C0000A43DA61DB690B400093009B1C2200216B
:1021D00001A803F0F4FF1C481C4B03601C4B436038
:1021E000002383601B4AC2600361836103F03AFBF2
:1021F000002820D1144803F061FB00281DD101A95B
:102200006023019300234B608B600B610E4800221A
:1022100003F0C2FB002812D10C4B0D4A9A620D4A02
:10222000DA6201215961DA680A43DA601A680A43FE
:102230001A6009B000BDFFF737FFFFF735FFFFF762
:1022400033FFC04600100240440800200020004038
:10225000BF120000E703000000B597B0404B9A6939
:10226000802149020A439A619B690B400093009BBD
:102270001022002112A803F0A2FF0822002110A8BA
:1022800003F09DFF1C22002109A803F098FF2022E3
:10229000002101A803F093FF3248334B0360334B16
:1022A000436000238360324AC260036143618361FB
:1022B00003F0D8FA002847D180235B011293294804
:1022C00012A903F0EDFB002840D1264803F0F6FAEE
:1022D00000283DD110A9002310934B60214803F042
:1022E00063FC002836D109A9602309939533FF3395
:1022F0004B6000238B60CB600B614B618B61194895
:10230000002203F049FB002826D101A900230193F4
:102310004B608B60CB600B61802292014A61CB6184
:10232000104803F077FC002818D10F4B0F4A9A622F
:102330000F4ADA6201215961DA680A43DA601A68E1
:102340000A431A6017B000BDFFF7AEFEFFF7ACFE00
:10235000FFF7AAFEFFF7A8FEFFF7A6FEFFF7A4FE11
:1023600000100240FC07002000400140BF120000A6
:10237000E703000000B591B01C22002109A803F07A
:102380001EFF2022002101A803F019FF1F48204B47
:102390000360204B4360002383601F4AC2600361D7
:1023A0004361836103F05EFA002826D1174803F0E9
:1023B00085FA002823D109A96023099300234B60E3
:1023C0008B60CB600B614B618B611048002203F086
:1023D000E3FA002815D101A9002301934B608B601B
:1023E000CB600B61802292014A61CB61074803F008
:1023F00011FC002807D111B000BDFFF755FEFFF713
:1024000053FEFFF751FEFFF74FFEC046B407002012
:10241000004401405F090000FFFF000010B50848BC
:10242000084B036004234360FA239B008360064B40
:10243000C36002F01BFD002800D110BDFFF734FE81
:102440005006002000300040FF0F000010B598B08B
:102450000BAC34220021200003F0B1FE1022002139
:1024600007A803F0ACFE1C220021684603F0A7FE7B
:1024700001230B930C930133149380235B02159378
:1024800080231B031693200002F02CF8002819D19A
:1024900007A807230793053B436000238360C360BD
:1024A000012102F00DFB00280ED168462023009385
:1024B000103B049302F0CEFB002807D102F0B4FADF
:1024C00018B010BDFFF7F0FDFFF7EEFDFFF7ECFDD4
:1024D00070B58EB002F096FC00F098FFFFF7B6FFE3
:1024E000FFF784FDFFF7A8FDFFF7E0FDFFF700FE13
:1024F000FFF720FEFFF73AFEFFF75CFEFFF7ACFEAA
:10250000FFF738FF02F09AFC00F06CFC072002F0A5
:1025100001FF00220321132002F0ECFE132002F041
:10252000EDFE00220321142002F0E4FE142002F04C
:10253000E5FE002202211E2002F0DCFE1E2002F039
:10254000DDFED94B1A68136801210B431360FFF7B6
:102550005BF8002801D0FFF7A7FD0121042000F05F
:102560008FFF01F017F9012001F028F902F066FC55
:1025700001F02CFACD4D280000F0CAFD04AC282251
:102580000021200003F01BFE0123E3618822D20119
:102590000492FC221202A2600622E2602362210061
:1025A000280001F04EFC002801D0FFF77DFDBF4858
:1025B00001F0CDFC002801D0FFF776FDBB480221D9
:1025C00001F03AFE002801D0FFF76EFDB74801F098
:1025D00075FFB74B48229854FFF720FF00F04AFFE1
:1025E000002806D1B34B1A68B34B9A4204D0FFF7C8
:1025F0005BFD00F0B1FDF5E700F0B6FDC7E001219D
:10260000042000F03DFFC7E0AC4A13681B181360BC
:10261000AB4B1A68AB4B1A60200001F025FAFBE0C7
:1026200000F034FEA84B9A69A8490A60D969A84B02
:102630001960130907201840A64B1870110CC9B275
:10264000A54B1970160EA54B1E70042313405A1E7D
:102650009341DBB2A24A1370954D4422A854013233
:10266000A9540132AE540132AB54904801F026FF18
:102670004823E8549B4B1B78002B48D0994B0022F1
:102680001A70994B1B78002B05D0984B1B6893420E
:102690000DD1100000E00020934B1B78002B08D0D8
:1026A000934B1B68002B00D0CBE0002102E00120FF
:1026B000F2E7002100F0F2FE0121042000F0E0FE2C
:1026C0008C4E300000F07EFB00F020FF300000F068
:1026D0004DFB894D2860300000F04AFB68603000F7
:1026E00000F048FBA860300000F046FBE8603000D6
:1026F00000F044FB2874814B1B786B74804B1B8863
:102700006B82804B1B88AB82280000F00BFD200001
:1027100001F066F90500061E00D194E000257A4B11
:102720001B78002B05D0784B00221A70002E00D1A8
:10273000A1E000F013FF05000200744B1B78002B92
:1027400001D1002811D1002B08D0714B1B78934286
:1027500004D0704B1B68E31A632B06D8002A0DD0F7
:102760006C4B1B68E31A632B08D9280000F0ECFCC3
:10277000684B1C60002801D1654B1D70634B012222
:102780001A70654802F0A6FB012002F05DFB00F024
:1027900015FD002800D032E7FFF736F85F4B1B88A5
:1027A0009BB2584A13805E4B1B889BB2544A1380DD
:1027B0004E4B1B684E4A12689B185A4A13605A4B7C
:1027C00000221A60FFF796F8002803D0574B1A68CA
:1027D000574B1A60FFF79AF8002803D0554B1A6838
:1027E000554B1A6002F02AFB040000F009FB00F0D0
:1027F00059FB424B1870200000F05AFB00F0E4FF38
:102800003C4D280000F0B2FA2D4B1860280000F073
:10281000DCFA002800D0F7E6364801A900F0B1FA4A
:10282000002800D1FCE601A800F0D6FC002800D06A
:10283000F6E6424A1368013313602E4800F0B5FAF9
:10284000EAE7012136E700F089FE04239843C0B28D
:10285000002800D063E73A4B1B78002B00D05EE7DE
:1028600000F052FC0378012B00D158E7200001F062
:1028700005F9050053E700F071FE04239843C0B248
:1028800000280CD12E4B1B78002B5DD02C4B1878D8
:10289000C0B22C4B1978C9B201F064F949E702F0D3
:1028A000CDFA01F06BF844E7B40700206C09002072
:1028B000080500200400002001300826DC04002068
:1028C000E4040020D804002000640040D404002068
:1028D000D0040020CC040020CB040020CA04002037
:1028E000C9040020050500206D04002078040020A4
:1028F000740400206C05002054050020C60400204C
:10290000020500200005002004050020C504002069
:10291000C4040020C0040020500600207E040020D3
:102920007C040020FC040020F8040020680400203F
:10293000EC04002064040020E8040020E0040020EF
:10294000C8040020C704002000F0DEFB0378012B40
:102950000AD0002D00D0ECE6064B1878C0B200F08B
:1029600039FF00F03DFFE4E600F0CEFB01F040F956
:10297000DFE6C046C604002010B502F05BF9FEE7B2
:10298000EFF3088000490847693500087047704731
:1029900010B502F047FA10BD10B5202002F070FB10
:1029A0008020400102F06CFB10BD000010B5024811
:1029B00002F0FFFB10BDC0466006002010B50248C3
:1029C00002F059FE10BDC0464408002010B5024870
:1029D00002F051FE10BDC046FC07002010B50248B1
:1029E00001F049FC10BDC0466C09002010B502483A
:1029F00002F0DFFB10BDC046D408002010B502482D
:102A0000FFF794F910BDC0461809002010B5002149
:102A100000F05EFC10BD000082B00A4B99690122F3
:102A20001143996199690A400092009ADA698021FC
:102A300049050A43DA61DB690B400193019B02B04F
:102A40007047C0460010024010B588B00400142240
:102A5000002103A803F0B3FB2268174B9A4201D070
:102A600008B010BD154BDA69802189040A43DA6188
:102A7000DA690A400192019A5A698021C9020A431F
:102A80005A615B690B400293029B03A9C0239B0020
:102A9000039302234B600133CB6001330B61084881
:102AA00002F020FA002200211E2002F023FC1E204A
:102AB00002F024FCD4E7C04600640040001002404D
:102AC0000004004810B588B004001422002103A8B7
:102AD00003F075FB2268114B9A4201D008B010BD7B
:102AE0000F4BDA69802189050A43DA61DA690A4005
:102AF0000192019A5A69802189020A435A615B69ED
:102B00000B400293029B03A9302303932D3B4B60A0
:102B10009020C00502F0E6F9E0E7C04600740040EE
:102B20000010024010B588B004001422002103A850
:102B300003F045FB2268274B9A4201D008B010BD34
:102B4000254B9A69802189000A439A619A690A4053
:102B50000192019A5A69802189020A435A615B698C
:102B60000B400293029B03A90A230393073B4B608C
:102B70009020C00502F0B6F91848194B03600023F5
:102B8000436083608033C360803303618023DB0054
:102B900043612023836180239B01C36102F0A6FA75
:102BA000002813D10D4B23635C6200220021092011
:102BB00002F0A0FB092002F0A1FB012200210C2061
:102BC00002F098FB0C2002F099FBB7E7FFF76CFAD4
:102BD000E8E7C0460024014000100240D40800206D
:102BE0000800024000B585B003681E4A934207D032
:102BF0001D4A934217D01D4A934227D005B000BD0D
:102C00001B4BDA69802149000A43DA61DB690B401A
:102C10000193019B00220021132002F06BFB132083
:102C200002F06CFBEAE7124B9A69802149020A43E1
:102C30009A619B690B400293029B002200211420A1
:102C400002F058FB142002F059FBD7E7084B9A69B1
:102C5000802189020A439A619B690B400393039B7D
:102C6000CCE7C04600200040004001400044014045
:102C70000010024010B58AB004001422002105A8FB
:102C800003F09DFA2368324A934204D0314A9342BA
:102C90001FD00AB010BD304B9A698021C9010A4388
:102CA0009A619A690A400192019A5A698021C9027F
:102CB0000A435A615B690B400293029B05A9C0233A
:102CC0000593BE3B4B600133CB60244802F00AF908
:102CD000DFE7214BD9698022D2021143D961D9693A
:102CE0001140039103995969114359615B6913407C
:102CF0000493049B05A9C0231B01059302234B6089
:102D00000133CB6001330B61144802F0EBF8144837
:102D1000144B036010234360002383608022C26051
:102D200003614361836180239B01C36102F0DEF98B
:102D3000002809D10C4A11688023DB040B4313607F
:102D4000074B23675C62A4E7FFF7AEF9F2E7C046E2
:102D500000380140004800400010024000040048D4
:102D6000600600201C00024000000140006A70471D
:102D7000406A7047806A7047C06A70470078C0B286
:102D8000704730B5D923C35CD822825C9A420AD0FE
:102D9000D923C35C5A009B189B00C018783034C8F4
:102DA00034C1012030BD0020FCE7D923C35CD82208
:102DB000825C9A4205D0D921425C0132072313403C
:102DC00043547047DC23C058704710B50300EFF33D
:102DD000108172B6E022805800249C5081F3108844
:102DE00010BD0000034B00221A70034B1860034B08
:102DF0001A6070479C09002098090020940900205F
:102E000010B5EFF3108172B609E00023134A137076
:102E1000134A1368FA24A400A446634413600F4BBA
:102E20001B78002B10D00E4B1B68C31AFA2292009D
:102E3000934209D3094B1B78DBB20A2BE5D9074B28
:102E40001B780A3BDBB2E1E7044B1B78002B01D176
:102E5000034B186081F3108810BDC0469C09002008
:102E600098090020EFF3108372B6C82808D8094AE1
:102E70001070094A116007D083F310880120704751
:102E800083F310880020FAE7044A94466144044A18
:102E90001160F1E79C09002098090020B80B0000A0
:102EA00094090020014B1878C0B270479C0900209B
:102EB000034B1B681B1AD817C01AC00F7047C046B7
:102EC0009409002010B58AB004006B46D97118220D
:102ED000002104A803F073F9002303930D4B186835
:102EE000002803D001F0EAFA022802D001200AB03B
:102EF00010BD04A9049400238B60CB6001220A61F9
:102F00000B75044B186803AB6A46073201F04FF8A3
:102F1000EDE7C046B809002070B588B004000E0087
:102F200002AD18220021280003F049F90023019383
:102F30008D239B0002930823069301AB32002900E6
:102F4000200001F034F8002805D1054A1369013347
:102F5000136108B070BD024A536901335361F8E749
:102F600008050020F0B583B005000C000023019394
:102F7000284B186800280BD0002D09D001F09EFACC
:102F8000022805D1234B186803689B695B0703D5AA
:102F90000124200003B0F0BD01AB2200290001F0A4
:102FA00006F8041E31D1019D022D1CD0042D1FD026
:102FB000012D2CD1022701F041FF0600154B1B68A3
:102FC0001B689A68154218D19B695B0704D401F00D
:102FD00035FF801B0128F1D90E4B1868019901F0CB
:102FE00058F80324D5E78027BF0080256D00E2E76D
:102FF0008027BF0280256D02DDE79A68174201D065
:103000009D60C6E79D600124C3E70124C1E7012458
:10301000BFE7C046B809002070B588B0EFF310864E
:1030200072B6174D2B686C460093E8681549FDF79A
:1030300025FDFC218905FDF745F9FDF72BF9A08059
:103040002B7CA3716B7CE37186F3108802A80E4B76
:103050000293002343608360C3600822026103750A
:103060006946FFF77FFF002805D1084AD36901337D
:10307000D36108B070BD054A136A01331362F8E7E3
:10308000A00900200000C84232020000080500200C
:1030900070B5040003781F2B30D89B00184AD35812
:1030A0009F46184B01221A705A700022DA700120D4
:1030B00025E0144B01221A7002215970DA700120A8
:1030C0001DE0457801F0BAFE01002800FFF7CAFEB6
:1030D000002814D00B4B00221A705A7062789A7034
:1030E0000DE0084B01221A7002785A70012006E0A8
:1030F000044B00221A705A70012000E0002070BDBD
:10310000AC6200080800002000487047080000205A
:10311000024B1860024B00221A707047B809002059
:103120009D09002070B500280AD0EFF3108172B617
:10313000044A130070C870C334C834C381F31088C4
:1031400070BDC046A009002010B501000148FFF77E
:10315000B9FE10BD1102000010B5010084208000EE
:10316000FFF7B0FE10BD000000B589B018220021A5
:1031700002A803F024F800236A46D37100930D4B94
:103180001868002803D001F099F9022802D0012024
:1031900009B000BD02A9084B029300238B60CB60ED
:1031A0000B610B75034B18686B466A46073200F0DB
:1031B000FEFEEDE7B809002012020000EFF31082D6
:1031C00072B6044B1878C0B20021197082F31088CF
:1031D0007047C0469E09002030B589B0040018220F
:1031E000002102A802F0EBFF08220021684602F04D
:1031F000E6FF002C07D0224B1868002803D001F00E
:103200005DF9022806D01F4A136B013313630120B6
:1032100009B030BD60681C49FDF730FCFC21890510
:10322000FDF750F8FDF736F882B2236869460B7057
:103230001D0A4D701D0C8D701B0ECB700871120A8B
:103240004A71227A1F2313408B71637ACB7102A8D3
:103250008C239B00029300238360C36008220261D9
:103260000375FFF77FFE002804D1064AD36A0133B5
:10327000D362CDE7034A136B01331363C8E7C0463B
:10328000B8090020080500200000C84210B5EFF37F
:10329000108272B60D4B1B78DBB282F31088002BC4
:1032A00000D110BDFFF7B8FE0028FAD1EFF310836C
:1032B00072B6064A1278002A04D004490A78013A04
:1032C000D2B20A7083F31088EBE7C0469D09002054
:1032D00010B58AB0040001AB03AA00F001FF00287A
:1032E00012D12E4A136801331360039B8822920087
:1032F00093420BD02A4A934219D02A4A934230D0A3
:10330000264A9369013393610AB010BD059A002AD9
:10331000F0D1069A002AEDD1079A002AEAD1224B71
:1033200001321A701D4A536801335360ECE7059A65
:10333000002AE2D1069A002ADFD1079A002A01D09A
:10334000082ADAD1194B1B78DBB2FF2B04D0174ABD
:1033500013780133DBB21370104A93680133936022
:10336000D2E7059B002BCBD1069B002BC8D1079B36
:10337000082BC5D101A8FFF78BFE002804D1074A0E
:10338000936901339361BFE7044AD3680133D36083
:1033900001A92000FFF7C0FDB6E7C04608050020E0
:1033A00031020000330200009E0900209D09002028
:1033B000BFF34F8F034B044ADA60BFF34F8FC04611
:1033C000FDE7C04600ED00E00400FA05036842682E
:1033D000534082685340C2685340026953400148D9
:1033E00058407047197EC3A570B5064C064D256040
:1033F0006060A160E26023612000FFF7E7FF606189
:1034000070BDC0469C0A0020544C465270B5144B07
:103410005C6A144B1C60144B00221A70134B1A6820
:10342000134B9A4211D0A40004D50F4A13780221FD
:103430000B4313700D4B00221A605A61084A516AFF
:1034400080235B040B43536270BD08484569FFF756
:10345000BDFF8542E7D1054B1A79034B1A70E2E7AD
:1034600000100240BC090020CB0900209C0A00206B
:10347000544C4652014B18787047C046CB09002087
:10348000002904D0044B1A78104318707047024A80
:10349000137883431370F9E7CA09002010B50C00B4
:1034A00000280ED1174B1B78022B11D80133DBB249
:1034B000144A1370022B0BD901210120FFF7E0FF02
:1034C00006E0104B00221A7000210120FFF7D8FF00
:1034D000002C0ED10C4B1B78022B11D80133DBB220
:1034E000094A1370022B0BD901210220FFF7C8FFF4
:1034F00006E0054B00221A7000210220FFF7C0FFF2
:1035000010BDC046C9090020C809002010B504003C
:1035100001F094FC0E4B1B68A3420FD10D4B1B789E
:10352000DB0613D50C4B1B68C01AFA239B0098428C
:103530000CD300211020FFF7A3FF07E0044B1C6011
:10354000054B186001211020FFF79AFF10BDC046FF
:10355000C4090020CA090020C0090020014B1878C6
:103560007047C046CA09002010B5002809D042693A
:103570008169C3690120FFF737FFBFF34F8FFFF762
:1035800017FF00231A001900F4E70000F0B58209C4
:103590000B885C1C0C800D4CA55C0D4AD5540509AC
:1035A00003231D400E88771C0F80655D95558508A7
:1035B0001D400E88771C0F80655D95550340088877
:1035C000451C0D80E35C1354F0BDC0462C6300081D
:1035D000D009002082B00023019302E0019B013357
:1035E0000193019AFA231B019A42F7D302B0704764
:1035F00010B50D486C22002102F0E1FD0B4B0022BA
:103600001A700B4A936880210B439360094B102278
:103610005A60094B1A687F398A431A60074A9A60D0
:1036200090221A6010BDC046D0090020CC090020AD
:1036300000480040000002401C00024028480040B2
:10364000094B187800280ED0084B1B68DB0703D500
:10365000064B5B68002B06D1054BDB694020184008
:1036600043425841C0B27047CC0900201C000240C0
:1036700000480040F0B5CE46474680B583B081464D
:103680008846002801D0092904D903B0C0BCB94636
:10369000B046F0BDFFF7D4FF0028F6D1214A1368E9
:1036A00001218B431360204B10225A601F4B303294
:1036B0001A621F4B1B78002B22D11E486C2200215E
:1036C00002F07DFD6B460022DA80002444451AD2C8
:1036D000A3004A46D5582F0CFFB2280AC0B2EDB25B
:1036E0006B469E1D3100FFF751FF31003800FFF798
:1036F0004DFF31002800FFF749FF0134E4B2E5E750
:10370000FFF768FFD9E7074B6C225A60094ADA6075
:10371000094A9A601A6801210A431A60044B197019
:10372000B3E7C0461C0002400000024000480040D1
:10373000CC090020D009002028480040F0B5C6463A
:1037400000B580460E1C000CFF273840FDF74AFDEF
:10375000311CFDF793F9FCF79DFDC4B24346180AEE
:103760003840FDF73FFD311CFDF788F9FCF792FD6D
:10377000C5B240463840FDF735FD311CFDF77EF9F6
:10378000FCF788FDC3B220042D022843184380BCF7
:10379000B846F0BD10B5FFF72BFF002306E0054A41
:1037A000990000208850044A88500133082BF6DD28
:1037B00010BDC046700A00204C0A0020014B187052
:1037C0007047C0460C000020014B18707047C0467F
:1037D000950A0020014B18707047C046940A0020DB
:1037E000F0B5D6464F464646C0B58AB0FFF728FF2B
:1037F000002800D0A3E0554B1B78002B1DD1544B63
:103800009A46544B1B789846002B19D0FE229205FD
:10381000514B1A60514B1C78C82C00D9C824E400C5
:10382000C8212000FCF770FCC7B2C8212000FCF7BB
:10383000F1FCCBB2994600250BE0494B9A46E0E7F4
:10384000484AE5E7AF4211D0434BA4000022E250C2
:103850000135072D17DCECB20134E4B2AF42F1DDE3
:103860003D4BA400FE229205E250F1E74B46002BAF
:10387000EAD04846FDF7B6FC3B49FCF731FF364B32
:10388000A4001851E4E7002416E03849281CFCF78E
:10389000D9FC002807D0364FA5003649301CFDF76B
:1038A0003FFA785120E0324BA200D7501CE0A30031
:1038B00001AA002199500134082C3CDC264BA200BF
:1038C000D7582B4BD658311C381CFDF729FA051C4C
:1038D0002849FCF7CBFC0028D7D0254FA500254967
:1038E000301CFCF7EFFC7851214BA200D558002189
:1038F000281CFCF7B1FC0028D9D1002C07D0291CCA
:103900005046FFF71BFFA30001AAD050D3E7434660
:10391000002B04D0A30001AA51469950CBE71149CE
:10392000281CFCF7DDFE011C1348FFF707FFA3006E
:1039300001AAD050BFE7092101A8FFF79BFE0AB0FA
:10394000E0BCBA46B146A846F0BDC0460C00002017
:1039500064FF3200950A0020700A0020940A0020BB
:10396000FF00B400CDCC4C3E000048439A9999BE6C
:103970004C0A00209A99993E0033280010B58AB06D
:103980000400FFF75DFE00281DD1A7212000FCF7F1
:10399000BBFB0321FCF73EFC002903D0012905D124
:1039A000FF2001E0FF200002002306E0FF200004CA
:1039B000FAE7990001AA88500133082BF9DD0921A3
:1039C00001A8FFF757FE0AB010BD0000024B1860B7
:1039D000024B01221A707047440A0020480A002056
:1039E00010B58AB01B4B1C78002C08D01A4B1B68F2
:1039F000C01AF9280CD9FFF723FE041E02D02000BC
:103A00000AB010BD134B00221A70FFF7E9FEF6E76B
:103A1000FFF716FE00281AD12422002101A802F087
:103A2000CEFB0E4B1B78002B03D10D4801900023D9
:103A300006E00C48FAE70133990001AA8850DBB28E
:103A4000072BF8D9092101A8FFF714FED7E70400D6
:103A5000D5E7C046480A0020440A00200C00002098
:103A600064FF3200FF00B400024B1860024B0122D9
:103A70001A7070473C0A0020400A0020F0B5CE467C
:103A800000B58AB0304B1D78002D08D02F4B1B6835
:103A9000C01A63280ED9FFF7D3FD051E04D02800F5
:103AA0000AB080BCB946F0BD274B00221A70FFF760
:103AB00097FEF4E7FFF7C4FD002843D1242200213C
:103AC00001A802F07CFB224B1B78002B14D1214F64
:103AD0000197214B1C78C82C00D9C824E400C821C8
:103AE0002000FCF711FBC6B2C8212000FCF792FBB6
:103AF000CBB29946002405E0184FE9E7B4420AD05A
:103B00000134E4B2072C18D8B442F7D2631C9B00EE
:103B100001AA9F50F4E74B46002BF1D04846FDF731
:103B200061FB0F49FCF7DCFD011C3800FFF706FEC6
:103B3000631C9A0001AB9850E2E7092101A8FFF746
:103B400099FDACE70500AAE7400A00203C0A0020E6
:103B50000C00002064FF3200940A0020FF00B40033
:103B60000000484370B58AB005000E00FFF768FDFD
:103B7000002835D1002E0FD0341C092E00D909247D
:103B8000E4B2032D12D009D8012D11D0022D12D18B
:103B9000FF252D02002319E00924F2E7042D0CD1A2
:103BA000104B1B78002B0AD10F4DF3E7FF25F1E7EF
:103BB000FF252D04EEE70025ECE70025EAE70B4D95
:103BC000E8E72800990001AA88500133082B03DC9C
:103BD0009C42F6DC0020F5E7092101A8FFF74AFD29
:103BE0000AB070BD0C00002064FF3200FF00B4007A
:103BF000F0B5C64600B58AB0040043781F2B08D83C
:103C00009B00374AD3589F460020FFF7D7FDFFF7A8
:103C1000E7FD0AB080BCB846F0BD0120FFF7CEFD3D
:103C2000FFF7DEFDF5E78078FFF7D4FD2D4B1B781D
:103C3000002B17D12C4EA478C82C00D9C824E4003E
:103C4000C8212000FCF760FAC5B2C8212000FCF7AB
:103C5000E1FACBB29846FFF7F3FC0028D9D10196E0
:103C6000002409E0214EE6E7A5420ED0631C9B002C
:103C700001AA002199500134072C18DCA542F3DD7C
:103C8000631C9B0001AA9E50F5E74346002BEDD034
:103C90004046FDF7A7FA671C1549FCF721FD011CFA
:103CA0003000FFF74BFDBF0001ABD851E3E709211E
:103CB00001A8FFF7DFFCACE700210120FFF752FF6E
:103CC000A7E700210220FFF74DFFA2E70021032014
:103CD000FFF748FF9DE700210520FFF743FF98E726
:103CE000306300080C00002064FF3200FF00B400C5
:103CF0000000484370B5041E00D1A0E02023C35C3F
:103D0000002B1AD02268136801210B43136001F0C5
:103D100095F8050022685368DB0711D401F08EF88E
:103D2000401B0A28F6D9626A80239B021343636210
:103D300020230522E254012070BDFEF785FEE1E755
:103D4000136802218B43136001F078F805002268A4
:103D500053689B070ED501F071F8401B0A28F6D96D
:103D6000626A80239B021343636220230522E2548C
:103D70000120E1E7237E012B3ED0136880218B4395
:103D80001360637E012B3CD02268136840218B4373
:103D90001360A37E012B3AD02268136820218B4345
:103DA0001360E37E012B38D02268136810210B4387
:103DB0001360237F012B36D02268136808218B43C0
:103DC0001360637F012B34D02268136804218B4376
:103DD0001360A368E26813432269134362691343C3
:103DE0006268013A21681343CB6100236362203388
:103DF0000122E25400209FE7136880210B431360E7
:103E0000BFE72268136840210B431360C1E72268B3
:103E1000136820210B431360C3E722681368102145
:103E20008B431360C5E72268136808210B431360B6
:103E3000C7E72268136804210B431360C9E7012018
:103E40007AE770B502682023C35C013BDBB2012B2B
:103E500006D9426A8023DB0213434362012070BD0E
:103E60008024A40010590123184310514C691F20CD
:103E7000204083408724A4001059DD43984310510B
:103E8000C869002818D1103C105928401051CC683E
:103E900024044E683604360C486934434830C00068
:103EA00084508C6824040E683604360C4869344308
:103EB0004830C00010184460C86901281AD08869C9
:103EC000002832D18124A4001059284010510869DB
:103ED000002830D18524A400105928401051096AC7
:103EE00001292ED08021890053580120834353504B
:103EF0000020B4E78324A4001059184310510C6823
:103F000024044E683604360C486934434830C000F7
:103F100084508C682404CE683604360C48693443D7
:103F20004830C00010184460C9E78124A40010592B
:103F300018431051CBE78524A400105918431051A1
:103F4000CDE78720800011580B431350CAE770B5A6
:103F500004002023C35CDEB2012B07D0426A802319
:103F60001B03134343620126300070BD1F3302223E
:103F7000C2540268136801218B43136000F05EFF96
:103F8000050023685B68DB070DD500F057FF401B79
:103F90000A28F6D9626A80239B02134363622023B6
:103FA0000522E254E0E7002363620026DCE770B5F7
:103FB0002024045D0568AD68013CE4B2012C61D8A1
:103FC000E0246405254256D02D0E03242C40012503
:103FD000A5401D608B68002B3AD10B685B05CD684E
:103FE00006682B43250018352D01AB5103680E6977
:103FF000250018352D015B195E600B7D012B32D039
:10400000D3791B06917909040B43517909020B43BB
:10401000157901682B43250149198D31FF310B605A
:10402000D3781B06917809040B43517809020B439E
:10403000117802680B4352198932FF32136002680B
:1040400018342401A35801210B43A35000201FE082
:104050004D68ED002B43CD6806682B4325001835CD
:104060002D01AB51C2E703685B195D6880214900EF
:1040700029435960C4E7426A80239B031343436288
:10408000012005E0426A8023DB02134343620120E2
:1040900070BD10B52023C35C013BDBB2012B06D9F8
:1040A000426A8023DB0213434362012010BDCB0729
:1040B00004D5026893688024234393608B0705D559
:1040C0000268946880231B0223439360490705D547
:1040D0000268916880231B040B4393600020E5E78E
:1040E00070B52024045D013CE4B2012C00D99CE0B1
:1040F00000290AD10468E468A40711D1426A802328
:104100009B0313434362012095E004682469A407DC
:1041100006D1426A80239B031343436201208AE055
:1041200005680C001B342401655904242C4094605C
:1041300064D105680C001B3424016459640D1460BB
:1041400005680C001B342401665902253540D560F2
:1041500005682C196468240758D50824146105687B
:104160000C001B3424012D196E68360AFF253540DA
:10417000956105682C196468240C546104680A016F
:10418000A418B934FF3424681C700468A418B93426
:10419000FF342468240A5C700468A418B934FF341E
:1041A0002468240C9C700468A418B934FF34246873
:1041B000240EDC700468A418BD34FF3424681C711C
:1041C0000468A418BD34FF342468240A5C710468B0
:1041D000A418BD34FF342468240C9C710468A21810
:1041E000BD32FF321268120EDA71002917D102684F
:1041F000D36820310B43D36000201CE005680C001D
:104200001B3424016459E408546099E70C001B3402
:1042100024012D196D680F242C4014619FE702685A
:10422000136920210B431361E6E7426A8023DB0216
:1042300013434362012070BD2023C35C013BDBB20A
:10424000012B06D9426A8023DB021343436201201B
:104250007047026853690B4353610020F8E77047C9
:104260007047704770477047704770477047704796
:10427000704770477047F8B5DE4657464E4645468C
:10428000E0B5050003685C695A6890469F68DA6883
:1042900092461A6991469A69934601221600264071
:1042A000224237D016003E403A4215D09A60BB07F2
:1042B00009D47B070ED408231E003E403B4206D0A3
:1042C0008026760108E0FFF7CAFF002604E0FFF72A
:1042D000C9FF01E080263601FB050CD52B68802242
:1042E00052009A60BB0500D58DE07B0500D48EE0BE
:1042F00080239B011E43FB030CD52B6880225202B6
:104300009A60BB0300D58CE07B0300D48DE0802352
:104310001B021E43230708D55346DB0605D5802321
:104320009B001E432B681022DA60630703D55346B7
:104330001B0700D583E0A30704D52B68DB689B0728
:1043400000D083E0630608D54B46DB0605D5802305
:10435000DB001E432B6810221A61A30603D54B46CF
:104360001B0700D576E0E30604D52B681B699B0785
:1043700000D076E0A30303D54346DB0600D574E006
:10438000E30303D543461B0700D575E0230432D56C
:1043900043465B072CD5E30504D55B46DB0701D517
:1043A00001231E43A30504D55B469B0701D50223C9
:1043B0001E43630504D55B465B0701D504231E43FA
:1043C000240515D570235A461A4059460B420FD082
:1043D000402A66D057D8202A5DD0302A5ED0102AD5
:1043E00001D108231E432A68936970218B4393618E
:1043F0002B6804225A60002E59D1F0BCBB46B2464D
:10440000A946A046F8BD2800FFF72AFF73E73B0541
:1044100003D58023DB011E436DE72800FFF723FF50
:1044200069E72800FFF71DFF74E73F0303D58023EA
:104430005B021E436EE72800FFF716FF6AE72B6852
:104440000822DA602800FFF710FF74E72800FEF763
:10445000DDFA77E72B6808221A612800FFF707FFCB
:1044600081E72800FFF702FF84E72B6810225A60DB
:104470002800FFF7FDFE83E72B6808225A6028001A
:10448000FFF7F7FE82E7502A0ED0602AABD18023D7
:104490005B001E43A7E710231E43A4E720231E430F
:1044A000A1E740231E439EE780231E439BE76B6AE0
:1044B00033436B622800FFF7DDFE9EE702002023F6
:1044C000C35CD8B2013BDBB2012B00D97047126844
:1044D00053689B0704D413689B07F7D50320F5E7BF
:1044E0000420F3E770B582B0041E00D17FE20368B8
:1044F000DB072BD5B34B5A680C231340042B1DD07C
:10450000B04B5A680C231340082B0ED06368012B64
:1045100041D0002B56D1AB4B1A68AB490A401A6008
:104520001A68AA490A401A603BE0A64B5B68C022A1
:1045300052021340802252029342E7D1A14B1B68E2
:104540009B0303D56368002B00D153E223689B07CC
:1045500077D59C4B5B680C221A4262D0994B5A6803
:104560000C231340082B53D0E368002B00D18AE0C2
:10457000944A136801210B43136000F05FFC0500AF
:10458000904B1B689B0775D400F058FC401B022819
:10459000F6D903202CE28B4A116880235B020B437F
:1045A00013606368002B25D000F048FC0500854BA4
:1045B0001B689B03CAD400F041FC401B6428F6D959
:1045C000032015E2052B09D07E4B1A687E490A406C
:1045D0001A601A687D490A401A60E2E7794B196847
:1045E0008022D2020A431A601968802252020A43CA
:1045F0001A60D6E700F022FC0500724B1B689B0393
:10460000A4D500F01BFC401B6428F6D90320EFE181
:104610006C4B5B68C022520213408022120293420C
:10462000A2D1684B1B689B0703D5E368012B00D020
:10463000E2E164490B68F82293432269D2001343F4
:104640000B6023681B0744D5E369002B2ED05D4A1D
:10465000536A01210B43536200F0F0FB0500594BF4
:104660005B6A9B0735D400F0E9FB401B0228F6D9B2
:104670000320BDE153490B68F82293432269D2001D
:1046800013430B60DDE74F4A136801218B4313602E
:1046900000F0D4FB05004B4B1B689B07D1D500F005
:1046A000CDFB401B0228F6D90320A1E1454A536AFD
:1046B00001218B43536200F0C1FB0500414B5B6A53
:1046C0009B0706D500F0BAFB401B0228F6D9032051
:1046D0008EE123685B0700D480E03A4BDB69DB00A6
:1046E0001DD4384BDA69802149050A43DA61DB6958
:1046F0000B400193019B0125354B1B68DB0510D551
:10470000A368012B21D0002B36D12E4B1A6A012130
:104710008A431A621A6A03318A431A621AE0002530
:10472000EAE72B4A116880235B000B43136000F01B
:1047300085FB0600264B1B68DB05E1D400F07EFB01
:10474000801B6428F6D9032052E11E4A136A012116
:104750000B431362A368002B24D000F06FFB06000C
:10476000184B1B6A9B0737D400F068FB801B194B62
:104770009842F5D903203BE1052B09D0114B1A6A69
:1047800001218A431A621A6A03318A431A62E1E7F5
:104790000C4B1A6A04210A431A621A6A03390A4343
:1047A0001A62D7E700F04AFB0600064B1B6A9B071C
:1047B00012D500F043FB801B064B9842F5D903202D
:1047C00016E1C04600100240FFFFFEFFFFFFFBFFA7
:1047D0000070004088130000012D39D02368DB06EB
:1047E00010D56369012B39D0053357D1894A536BF2
:1047F00004218B435363536BF4318B43A169C9008C
:104800000B43536323689B066ED5824B5A680C2377
:1048100013400C2B60D07F4B5A680C231340082B9D
:1048200053D0236A002B7ED07A4A516B80235B02DF
:104830000B43536300F002FB0500764B5B6B9B035D
:1048400052D400F0FBFA401B0228F6D90320CFE037
:10485000704AD36970490B40D361BFE76D4B5A6B07
:1048600004210A435A635A6B03390A435A6300F01E
:10487000E5FA0500674B5B6B9B0706D400F0DEFA98
:10488000401B0228F6D90320B2E062494B6BF822A4
:104890009343A269D20013434B63B3E75D4B5A6B5A
:1048A00004210A435A635A6B03398A435A6300F05E
:1048B000C5FA0500574B5B6B9B07A3D500F0BEFA0A
:1048C000401B0228F6D9032092E0524B5B68C022BD
:1048D000520213409342A4D14E4B5B6B9B0303D512
:1048E000236A012B00D089E0636A002B00D187E0A6
:1048F000484A51680C220A40082A60D0022B25D071
:10490000444A136845490B40136000F097FA0400CD
:10491000404B1B689B0150D500F090FA001B022809
:10492000F6D9032064E03B4A536B3D490B40536387
:1049300000F084FA0500374B5B6B9B03D4D500F085
:104940007DFA401B0228F6D9032051E0314A136852
:1049500032490B40136000F071FA05002D4B1B68C3
:104960009B0106D500F06AFA401B0228F6D9032005
:104970003EE0284BDA6A0F218A43216B0A43DA6250
:104980005A6828490A40E16AA06A01430A435A600A
:104990001968802252040A431A6000F04FFA04009A
:1049A0001C4B1B689B0106D400F048FA001B022830
:1049B000F6D903201CE000201AE0002018E0012BAB
:1049C00020D0144B5A68D86AC0235B021340A16AF6
:1049D0008B4219D10F230340216B8B4216D1F02358
:1049E0009B031A40E36A9A4212D1002000E00120A2
:1049F00002B070BD0120FBE70120F9E70120F7E7D5
:104A00000020F5E70120F3E70120F1E70120EFE7BF
:104A10000120EDE700100240FFFFFFEFFFFFFFFE68
:104A2000FFFFFEFFFF7FC2FF034A116880231B03C5
:104A30000B4313607047C0460010024010B51A4B7C
:104A40005A680C231340082B05D00C2B27D0042BBD
:104A500027D1164824E0910C0F2319401448445CD8
:104A60001149C96A0B401349C95CC0235B021A4053
:104A700080235B029A4208D0C0235B029A4209D08D
:104A80000D48FBF741FB60430AE00848FBF73CFB9D
:104A9000604305E00948FBF737FB604300E0074847
:104AA00010BD0548FCE7C04600100240001BB700DF
:104AB000C0630008B063000800127A00006CDC02DA
:104AC00070B504000D00002800D186E0474B1A683D
:104AD000012313408B420AD244490B6801229343BD
:104AE0002B430B600B681A40AA4200D077E0236882
:104AF0009A070ED55B0705D53D4A5168E023DB00D8
:104B00000B4353603A4A5368F0218B43A1680B432F
:104B100053602368DB0735D56368012B09D0022B6E
:104B200024D0032B28D0324A1268920705D40120E2
:104B300052E02F4A1268920353D52D494A68032048
:104B4000824313434B6000F079F90600284B5B6801
:104B50000C221A4063689B009A4213D000F06EF951
:104B6000801B244B9842F1D9032035E0204A12687B
:104B70009201E2D401202FE01D4A526B9203DCD453
:104B8000012029E0194B1A6801231340AB4209D9CF
:104B900016490B68012293432B430B600B681A40A4
:104BA000AA4220D123685B0706D5114A53681249EF
:104BB0000B40E1680B435360FFF740FF0C4B5A6812
:104BC00012090F2313400D4AD35CD8400C4B1860D8
:104BD000032000F0EFF8002070BD0120FCE7012069
:104BE000FAE70120F8E70120F6E7C046002002407E
:104BF0000010024088130000FFF8FFFFD863000890
:104C000014000020014B18687047C04614000020B3
:104C100010B5FFF7F7FF044B5A68120A0723134039
:104C2000024AD35CD84010BD00100240D063000897
:104C30007047000010B5054B9B681B0600D410BDE3
:104C4000FFF7F6FF024B80221A70F8E700100240CF
:104C50000A10024070B582B004000368DB0339D546
:104C60004D4BDB69DB006AD44B4BDA698021490587
:104C70000A43DA61DB690B400193019B0125474B35
:104C80001B68DB055DD5444B1A6AC0239B001100ED
:104C900019401A4215D06368C022920013408B421B
:104CA0000FD03D4B1A6A3E4911401E6A80204002D7
:104CB00030431862186A3B4E304018621962D207BE
:104CC00054D4354A136A36490B4061680B4313626A
:104CD000012D5AD02368DB0706D52F4A136B032119
:104CE0008B43A1680B43136323689B0706D52A4AAD
:104CF000136B2D490B40E1680B43136323689B063C
:104D000006D5254A136B10218B4321690B4313638E
:104D100023689B0306D5204A136B80218B43A1692E
:104D20000B43136323685B0534D51B4A136B402187
:104D30008B4361690B431363002002B070BD0025F3
:104D40009DE7164A116880235B000B43136000F057
:104D500075F80600114B1B68DB0500D593E700F0E2
:104D60006DF8801B6428F5D90320E6E700F066F8AB
:104D70000600094B1B6A9B07A3D400F05FF8801B59
:104D80000A4B9842F5D90320D7E7D36908490B406D
:104D9000D3619FE70020D0E7001002400070004080
:104DA000FFFCFFFFFFFFFEFFFFFFFCFF881300007B
:104DB000FFFFFFEF70B504000F4B1D680F4B197814
:104DC000FA208000FBF7A0F901002800FBF79CF90E
:104DD00000F0B0FA00280DD1032C01D901200AE01F
:104DE000013000222100404200F084FA044B1C6094
:104DF000002000E0012070BD140000200D00002004
:104E00001000002010B5064A136810210B431360F0
:104E10000320FFF7CFFFFDF7FFFD002010BDC046C8
:104E200000200240034A1168034B1B785B18136093
:104E30007047C046980A00200D000020014B1868FA
:104E40007047C046980A002070B50400FFF7F6FFCF
:104E50000500631C02D0044B1B78E418FFF7EEFF3B
:104E6000401BA042FAD370BD0D00002070B5041E97
:104E700028D00368144A1A600368144A1A60036849
:104E800042685A60036882689A60FFF7D7FF05009E
:104E90002268D3685B070AD0FFF7D0FF401B2728A2
:104EA000F6D92368DB685B07F2D003200BE01169B9
:104EB000E368994202D01361002004E0044B1360C0
:104EC000002000E0012070BDCCCC00005555000052
:104ED000AAAA00000368024A1A6000207047C04670
:104EE000AAAA0000F0B583B0002356E086685F00F0
:104EF0000324BC40A643CC68BC403443846044686F
:104F000094434E683609012232409A40224342605F
:104F100053E0DE080836B600375805321A409200D2
:104F20000F249440A7430C69944022003A43325026
:104F300056E0042600E00026A64034003C4302323E
:104F40009200474E9451474A9768EA433E00AE4369
:104F50004C68E40201D53E002E43424CA660E7684F
:104F60003E0016404C68A40201D53E002E433D4C45
:104F7000E66067683E0016404C68A40301D53E0019
:104F80002E43384C6660266832404C68E40301D5F5
:104F90002A003243334C226001330C682200DA408D
:104FA0005BD001229A40250015401442F4D04E688F
:104FB00003243440013C012C98D94C680322224040
:104FC000032A08D0C4685E000322B24094438A6872
:104FD000B2402243C2604C6803222240022A98D089
:104FE00004685E0003221700B740BC434F683A4094
:104FF000B240224302604C68C02292021442CBD0DD
:10500000194CA66901221643A661A46922400192A7
:10501000019A9A08941CA400114EA75903241C401D
:10502000A4000F26A640B7439026F605B04282D0D2
:105030000E4EB0420BD00E4EB0420AD00D4EB042D2
:1050400009D00D4EB04200D173E7052674E7012662
:1050500072E7022670E703266EE703B0F0BDC04694
:10506000000001400004014000100240000400481C
:1050700000080048000C004800100048704700007D
:1050800010B5054B5B69184200D110BD024B586149
:10509000FFF7F4FFF9E7C0460004014070B5066C65
:1050A000C56B0124B4406C60046863604368102BD6
:1050B00004D0036899600368DA6070BD03689A6081
:1050C0000368D960F9E7000010B504000068054BDB
:1050D0009C4660441421FBF717F880002064024BC3
:1050E000E36310BDF8FFFDBF0000024070B5041E71
:1050F00020D021250223435501680A680E4B1A402F
:10510000436880680343E0680343206903436069A0
:105110000343A0690343E069034313430B6020008A
:10512000FFF7D2FF0023A363012262551F32A3546D
:10513000002070BD0120FCE70FC0FFFF70B5040028
:105140002020205C012832D0202001252554013068
:10515000205C012804D020230022E254022070BDEC
:105160002030013525540020A063256828680126D9
:10517000B04328602000FFF791FFE36A002B0BD0BB
:10518000226813680E210B43136022681368012103
:105190000B4313600020E2E7226813680A210B43E7
:1051A00013602268136806398B431360EDE7022011
:1051B000D5E770B5C36B1A6804682568016C0423D1
:1051C0008B401A4212D06B0710D523689B0603D47C
:1051D0002368042293432360016CC26B04238B4039
:1051E0005360C36A002B00D0984770BD02238B40E8
:1051F0001A4218D0AB0716D523689B0606D423683D
:105200000A22934323602123093AC254016CC26BE2
:1052100002238B40536020230022C254836A002B58
:10522000E3D09847E1E708238B401A42DDD02D07F1
:10523000DBD523680E2293432360016CC26B0123EC
:105240001C008C4054608363212283541F3300224E
:10525000C254036B002BC8D09847C6E770B500282E
:1052600011DB8308134DC0339B005C5903221040AF
:10527000C000FC3216008640B44389010A408240D7
:1052800022435A5170BD0F230340083B9B0806334D
:105290009B00094A944663445C6803221040C000A6
:1052A000FC3215008540AC4389010A40824022430C
:1052B0005A60E7E700E100E000ED00E001388023FC
:1052C0005B0498420FD2094A50600948036A1B02E6
:1052D0001B0AC02109060B430362002393600733B6
:1052E0001360002070470120FCE7C04610E000E09A
:1052F00000ED00E010B5FFF7B1FF10BD002805DBA1
:105300001F22024001239340014A13607047C046A8
:1053100000E100E000280ADB1F2202400123934045
:10532000034980228B50BFF34F8FBFF36F8F7047BD
:1053300000E100E010B5FFF7C1FF10BD10B5041E7D
:105340000ED00379002B07D00223237100232361A1
:1053500001332371002010BD4371FDF7B3FBF3E768
:105360000120F8E710B582B0002401940068019094
:10537000002908D101998A1808320192019A136014
:10538000002002B010BD01998A1814320192F5E78D
:1053900070B54379012B13D00125457102230371A8
:1053A00006683468074B93409C430B6849680B437D
:1053B000934023433360057100234371002070BD87
:1053C0000220FCE7FE0F000010B54379012B27D027
:1053D0000123437102220271046822688B40134347
:1053E0002360002910D1026811683C230B403C2B3C
:1053F00005D00123037100234371002010BD5368C1
:1054000001210B435360F4E701680B68F02292031B
:1054100013409342EDD14B68022213434B60E8E7FF
:105420000220EBE730B5056A036A01229343036269
:10543000426883697324A3430C681C4302239D4381
:105440008B682B43154DA84208D0154DA84205D0B6
:10545000144DA84202D0144DA84206D10825AB43F2
:105460001D00CB682B430425AB430C4DA84208D04C
:105470000B4DA84205D00B4DA84202D00A4DA842C0
:1054800005D10A4D2A404D6915438A692A43426075
:1054900084614A684263036230BDC046002C01400B
:1054A000004001400044014000480140FFFCFFFF74
:1054B00030B5046A036A184A134003624268C3693C
:1054C0007325AB430D681D43144B1C408B681B02B6
:1054D0002343134CA04209D0124CA0420DD0124CD1
:1054E000A0420AD0114CA0420FD106E0104C1C4043
:1054F000CB681B0223430F4C23400F4C22404C69C6
:10550000240114438A69120122434260C5614A683A
:10551000C263036230BDC046FFFEFFFFFFFDFFFF19
:10552000002C01400040014000440140004801407F
:10553000FFF7FFFFFFFBFFFFFFCFFFFF30B5046A60
:10554000036A134A134003624368C269114D2A403B
:105550000D682D021543104A14408A681203224335
:105560000E4CA04208D00E4CA04205D00D4CA042DB
:1055700002D00D4CA04204D10C4C1C404B699B0145
:1055800023434360C5614B680364026230BDC0467B
:10559000FFEFFFFFFF8CFFFFFFDFFFFF002C01404D
:1055A000004001400044014000480140FFBFFFFFB0
:1055B00030B5036A046A0125AC4304628469EF359F
:1055C000AC43120122430A24A3430B4382610362CA
:1055D00030BD000030B5036A046A1025AC43046294
:1055E0008469054D2C4012032243A024A3430901E2
:1055F00019438261016230BDFF0FFFFF8368702293
:1056000093430B43693A1343836070473D23C35C64
:10561000012B21D13C330222C2540368104A934229
:105620000FD08022D20593420BD00E4A934208D06D
:105630000D4A934205D01A6801210A431A600020DE
:105640000BE0996807220A40062A07D01A68012150
:105650000A431A60002000E0012070470020FCE7A8
:10566000002C01400004004000400140704770479A
:1056700070477047704770B504000368DE681D69A5
:10568000AA070ED5B2070CD5032252421A61012394
:10569000037703689B699B0751D0FFF7E9FF00235D
:1056A00023776B0712D5730710D523680522524262
:1056B0001A610223237723689A69C0239B001A4248
:1056C00043D02000FFF7D4FF002323772B0710D50A
:1056D00033070ED52368092252421A610423237727
:1056E0002368DB699B0737D02000FFF7C1FF002349
:1056F0002377EB0612D5F30610D523681122524208
:105700001A61082323772368DA69C0239B001A42B1
:1057100029D02000FFF7ACFF00232377EB0701D54A
:10572000F30727D42B0601D533062BD46B0601D5FE
:1057300073062FD4AD0601D5B60633D470BDFFF77E
:1057400096FF2000FFF795FFA9E72000FFF78FFFE6
:105750002000FFF78EFFB7E72000FFF788FF20004B
:10576000FFF787FFC3E72000FFF781FF2000FFF767
:1057700080FFD1E72368022252421A612000FCF721
:105780007BFCCFE72368812252421A61200000F09F
:1057900078FACBE72368412252421A612000FFF7D2
:1057A00069FFC7E72368212252421A61200000F0F6
:1057B00067FAC3E70368244A904206D08022D205E4
:1057C000904202D0214A904203D1702293434A680A
:1057D00013431D4A904212D08022D20590420ED02F
:1057E0001A4A90420BD01A4A904208D0194A904265
:1057F00005D0194A904202D0184A904203D1184A63
:105800001A40CB681343802293434A6913430360D1
:105810008B68C3620B6883620B4B984208D00D4BB8
:10582000984205D00C4B984202D00C4B984201D1C3
:105830000B690363012343610269134203D00369C7
:105840000122934303617047002C01400004004093
:105850000020004000400140004401400048014059
:10586000FFFCFFFF70B5041E26D03D23C35C002B58
:105870001CD03D2502236355210001C9FFF79AFF83
:1058800001234622A354083AA3540132A3540132FF
:10589000A3540132A3540132A3540132A354013260
:1058A000A3540132A3546355002070BD3C33002241
:1058B000C254FDF797F9DCE70120F6E770B5041E46
:1058C00026D03D23C35C002B1CD03D25022363550D
:1058D000210001C9FFF76EFF01234622A354083AB5
:1058E000A3540132A3540132A3540132A354013210
:1058F000A3540132A3540132A3540132A35463557B
:10590000002070BD3C330022C254FFF7AFFEDCE73D
:105910000120F6E770B5026A036A1024A34303620C
:1059200044688369164D2B400D682D021D432023CA
:105930009A438B681B011343124A904209D0124AC2
:1059400090420ED0114A90420BD0114A904210D191
:1059500007E0802293431E00CB681B013343403A8B
:1059600093430C4A14404A69920022438C69A40074
:105970001443446085614A688263036270BDC04617
:10598000FF8CFFFF002C014000400140004401401B
:1059900000480140FFF3FFFF70B504000D003C23F9
:1059A000C35C012B00D16AE03C230121C154082AC9
:1059B00050D01CD8002A35D0042A16D100682900FE
:1059C000FFF7A8FF2268916980231B010B439361B5
:1059D000226893692B490B40936121688B692A697E
:1059E000120213438B61002030E001202EE00C2ACC
:1059F00016D100682900FFF7A1FD2268D169802334
:105A00001B010B43D3612268D3691E490B40D3614C
:105A10002168CB692A6912021343CB61002015E08B
:105A2000012013E000682900FFF7FCFC226893695D
:105A300008210B4393612268936904398B43936176
:105A40002268936929690B43936100203C2300225B
:105A5000E25470BD00682900FFF72AFD2268D3696F
:105A600008210B43D3612268D36904398B43D36186
:105A70002268D36929690B43D3610020E6E702203D
:105A8000E7E7C046FFFBFFFF30B58468034D2C40BD
:105A90001B0213430B432343836030BDFF00FFFF12
:105AA00010B504000B003C22825C012A00D177E093
:105AB0003C220121815401320131815401688A68FC
:105AC000384802408A60196860294FD023D840299D
:105AD00057D011D8202904D00AD8002901D0102984
